:100E3900D3EF9401EE940040177D64EDD3940274CE
:100E490080948040031D80F30DEF1F70E31E80E046
:100E59007D61EDD394007480948040031D80F37DFF
:040E690004DDFE2284
:100EA1008F80C2A0C2A1D2A27F027E00120E39C2DF
:020EB100A2227B
:100EB3008F80D2A0C2A1D2A27F027E00120E39C2BD
:020EC300A22269
:100E8D007F02120EA17F38120EA17F0E120EA17FCE
:040E9D0001020EA19F
:100DFA008B5C8A5D895EAB5CAA5DA95E120B47605B
:100E0A002DB40D107FC0120EA17401255EF55EE4AB
:100E1A00355DF55DAB5CAA5DA95E120B47FF120E4C
:0F0E2A00B37401255EF55EE4355DF55D80C82289
:100C54008F178E168D158C14E4F51BF51AF519F5FE
:100C640018EC3350187F2D120EB3AF17AE16AD1516
:100C7400AC14120B608F178E168D158C14AF17AE33
:100C840016AD15AC14EC4D4E4F70057F30120EB3FB
:100C9400AF17AE16AD15AC14EC4D4E4F604EE47B61
:100CA4000AFAF9F8120DB6AC00AD01AE02AF03E5D5
:100CB4001B25E025E0241CF8120B7AE4FAF9F8E588
:100CC4001B2401F51BEA351AF51AE93519F519E85B
:100CD4003518F518AF17AE16AD15AC14E47B0A122F
:100CE4000DB68F178E168D158C1480A4E51B24FF6A
:100CF400801DAC18EC33402DE51B25E025E0241CB9
:100D0400F8120B6EEF2430FF120EB374FF251BF59F
:100D14001BE51A34FFF51AE51934FFF519E5183403
:060D2400FFF51880CD224E
:100D2A008F0B8E0A8D098C08E4FFFEFDFCAB0BAA23
:100D3A000AA909A8081209FE50187F2D120EB3AF8E
:100D4A000BAE0AAD09AC08120A778F0B8E0A8D0911
:100D5A008C08AF0BAE0AAD09AC08120AC68F0F8E0B
:100D6A000E8D0D8C0CEC120A88A804A905AA06ABF4
:100D7A0007AF0BAE0AAD09AC08120803E4FBFA7917
:100D8A00C878421208F8120AC68F138E128D118C77
:100D9A0010AF0FAE0EAD0DAC0C120C547F2E120E0E
:0C0DAA00B3AF13AE12AD11AC10020C542C
:100E6D00120E8D7F4E7E617DBC7C00120C547FC0B6
:100E7D00120EA17F8D7EE67D407C46120D2A80FEEE
:10080000020B32E86480F8E933E83360110460F0E9
:10081000ED33EC337009E8FCE9FDEAFEEBFF22045E
:1008200060DED3EB9FEA9EE99DE8C2E78CF0C2F759
:1008300095F0400CE8CCF8E9CDF9EACEFAEBCFFB25
:10084000120AFD85D0F05804700320D5B3E8047077
:10085000075002B2D5020B3C92D5EC0460F7E4CC11
:10086000C0E0C398F8603B94186008400DD0E0FBEE
:10087000020B14E4FBFAC9FC8028E830E406E4C962
:10088000FBE4CAFCE830E305E4C9CACBFCE8540742
:100890006010F8C3E913F9EA13FAEB13FBEC13FC4D
:1008A000D8F130F52FC3E49CFCEF9BFFEE9AFEEDF0
:1008B00099FDD0E0FBEF4E4D4C701222DB03020B92
:1008C00039EC2CFCEF33FFEE33FEED33FDED30E77A
:1008D000EB020B14EF2BFFEE3AFEED39FDD0E0FBFF
:1008E00050130BBB0003020B3CED13FDEE13FEEFA8
:0808F00013FFEC13FC020B14D2
:1008F800EC4D6011E8497017ED33EC3304600DE4FA
:10090800FCFFFEFD22E933E8330470F8020B3212D3
:100918000AFD58046009E4CC2481500628500902D5
:100928000B3C284003020B39C0E0EB4A7044B98005
:1009380006D0E0FB020B28EF4E701CBD8008EBFFD1
:10094800EAFEE9FD80EBE98DF0A4FEE5F00209E19D
:10095800E9CDF9EAFEEBFFEF89F0A4FCE5F0CE89DA
:10096800F0A42EFFE435F0CD89F0A42DFEE435F097
:100978008067EF4E7005BD80D780C3EF8BF0A4ACC5
:10098800F0EE8BF0A42CFCE435F0F8EF8AF0A42C00
:10099800E5F038FCE433CB8DF0A42CFCE5F03BF813
:1009A800EE8AF0A42CFCE5F038F8E433CF89F0A403
:1009B8002CFCE5F038CF3400CE89F0A42FFFE5F009
:1009C8003EFEE433C98DF0A42EFEE5F039CD8AF061
:1009D800A42FFFE5F03EFEE43DFD33D0E0FB5007D9
:1009E8000BBB000F020B3CEC2CFCEF33FFEE33FE8D
:0609F800ED33FD020B14BB
:1009FE0074F8CC6480CCC86480C8F58204604FC3A0
:100A0E00EB9FF5F0EA9E42F0E99D42F0E89C45F03E
:100A1E00603C501DE5825FFFE582D313CB5BCBF4C8
:100A2E002B5582FB50280ABA002409B900200880F1
:100A3E001DE5825BFBE582D313CF5FCFF4C3132F8B
:100A4E005582FF50090EBE00050DBD00010CC3EB13
:100A5E009FF5F0EA9E42F0E99D42F0E89C45F06079
:090A6E0007CC4820E701B3EC229B
:100A7700ED33EC33600A047003BD8004ECB2E7FC8D
:010A8700224C
:100A880075F020800E75F010800575F0087D007EE9
:100A9800007F003392D530D503120B60EC33401041
:100AA800EF33FFEE33FEED33FDEC33FCD5F0ED22F2
:0E0AB800E5F0247EA2D513CC92E7CDCEFF222E
:100AC600EDD2E7CD33EC3392D524814006E4FFFE28
:100AD600FDFC22FCE4CFCECDCC24E0501174FF8087
:100AE600EDC3CC13CCCD13CDCE13CECF13CF047024
:070AF600F030D5DE020B60B9
:100AFD00E9D2E7C933E833F892D5EDD2E7CD33EC3F
:070B0D0033FC5002B2D522B7
:100B1400EC30E7100FBF000C0EBE00080DBD000442
:100B24000BEB6014A2D5EB13FCED92E7FD2274FFEE
:100B3400FCFDFEFF22E480F8A2D574FF13FC7D8047
:030B4400E480EF5B
:03000000020EC528
:0C0EC500787FE4F6D8FD75815E020E6DAA
:100B4700BB010689828A83E0225002E722BBFE02AC
:090B5700E32289828A83E49322DF
:100DB600C2D5E830E70FB2D5E4C39BFBE49AFAE468
:100DC60099F9E498F8EC30E717B2D5120DEC120B4E
:100DD600C2E4C39BFBE49AFAE499F9E498F8800329
:100DE600120BC230D50DE4C39FFFE49EFEE49DFDC9
:040DF600E49CFC225B
:0E0B6000C3E49FFFE49EFEE49DFDE49CFC22A6
:0C0B6E00E6FC08E6FD08E6FE08E6FF22B3
:0C0B7A00ECF608EDF608EEF608EFF622A7
:100B860075F008758200EF2FFFEE33FECD33CDCC26
:100B960033CCC58233C5829BED9AEC99E5829840A9
:100BA6000CF582EE9BFEED9AFDEC99FC0FD5F0D686
:100BB600E4CEFBE4CDFAE4CCF9A88222B800C1B9B0
:100BC6000059BA002DEC8BF084CFCECDFCE5F0CBEE
:100BD600F97818EF2FFFEE33FEED33FDEC33FCEB27
:100BE60033FB10D703994004EB99FB0FD8E5E4F9E2
:100BF600FA227818EF2FFFEE33FEED33FDEC33FCCF
:100C0600C933C910D7059BE99A4007EC9BFCE99AC2
:100C1600F90FD8E0E4C9FAE4CCFB2275F010EF2F07
:100C2600FFEE33FEED33FDCC33CCC833C810D70707
:100C36009BEC9AE899400AED9BFDEC9AFCE899F842
:0E0C46000FD5F0DAE4CDFBE4CCFAE4C8F922D5
:00000001FF
