:1009C300759850438920EF8EF01208C709E71C2061
:1009D30009EC258009F1384009F6708009FBE10034
:1009E30000000A01758DFC8015758DFD8010758DD5
:1009F300FE800B758DFF8006758DFF438780D28E39
:010A030022D0
:080B7A008F993099FDC2992208
:080B82003098FDC298AF9922E2
:100B2B0012087AFF600C120B7A740129F9E43AFA75
:030B3B0080EE2227
:080A0400C2A1D2A27F027E0014
:100A0C00D3EF9401EE940040177D64EDD3940274FF
:100A1C0080948040031D80F30DEF1F70E31E80E077
:100A2C007D61EDD394007480948040031D80F37D30
:040A3C0004DDFE22B5
:0A0B5D008F80C2A0120A04C2A22277
:0A0B67008F80D2A0120A04C2A2225D
:100B17007F02120B5D7F38120B5D7F0E120B5D7F1C
:040B270001020B5D5F
:100A9C0012087A601FB40D0C7FC0120B5D74012913
:100AAC00F9E43AFA12087AFF120B67740129F9E497
:050ABC003AFA80DC2283
:100B3E000D0A6E6F2061636B000D0A676F74206182
:030B4E00636B00D6
:100963008F168D178B18120B8AAF16120AC1120B32
:100973000292007BFF3000067A0B793E80047A0BEB
:100983007947120B2BAF17120AC1120B0292007B8D
:10099300FF3000067A0B793E80047A0B7947120BFD
:1009A3002BAF18120AC1120B0292007BFF30000614
:1009B3007A0B793E80047A0B7947120B2B020B7169
:1008F4008F198D1A120B8AAF19120AC1120B0292A8
:10090400007BFF3000067A0B793E80047A0B79472E
:10091400120B2BAF1A120AC1120B0292007BFF308A
:1009240000067A0B793E80047A0B7947120B2B125E
:100934000B8AE5194401FF120AC1120B0292007BD3
:10094400FF3000067A0B793E80047A0B7947120B4C
:0F0954002B120A758F1B120B91120B71AF1B2206
:070B8A00D2A7D2A6C2A622E9
:090B7100C2A7C2A6D2A7D2A62297
:100AC1007E07EE3395E0C3648094804014C2A7A8EA
:100AD10006EF088002C313D8FC1392A6D2A71E808A
:020AE100E12210
:100A7500E4FF7E07EE3395E0C3648094804017D28F
:100A8500A730A60DA8067401088002C333D8FC421E
:070A950007C2A71E80DE224C
:100B0200C2A7D2A6D2A70000000020A604C2A7C393
:050B120022C2A7D3225E
:070B9100C2A7D2A6D2A722E1
:100AE3008D148B15AB077D027FD0120963AB147D88
:0F0AF300017FD0120963AB15E4FD7FD0020963C8
:100800008B148A1589167D027FD01208F48F177D0C
:10081000017FD01208F48F18E4FD7FD01208F4E5B0
:1008200017C4540F2430AB14AA15A916120893E567
:1008300017540F2430FEAB14AA15A916900001120C
:1008400008A5900002743A1208A5E518C4540F24B4
:10085000309000031208A5900004EE1208A5900045
:1008600005743A1208A5EFC4540F2430FE90000618
:0A0870001208A5900007EE0208A58B
:100A4000120B177F807E251209C37B407D597F23BF
:100A5000120AE37B007A0079081208007F80120BEB
:100A60005D7B007A007908120A9C7B007A00790885
:050A7000120B2B80DEDB
:03000000020B519F
:0C0B5100787FE4F6D8FD758120020A4090
:10087A00BB010689828A83E0225002E722BBFE027C
:09088A00E32289828A83E49322AF
:10089300BB010689828A83F0225002F722BBFE0144
:0208A300F3223E
:1008A500F8BB010DE58229F582E5833AF583E8F089
:1008B500225006E92582C8F622BBFE05E92582C835
:0208C500F2221D
:1008C700D083D082F8E4937012740193700DA3A3C0
:1008D70093F8740193F5828883E473740293B5F0F7
:0D08E700067403936860E9A3A3A3A380D85F
:00000001FF
