:100AAB008F80C2A0C2A1D2A27F027E00120A1DC2F9
:020ABB00A22275
:100ABD008F80D2A0C2A1D2A27F027E00120A1DC2D7
:020ACD00A22263
:100A97007F02120AAB7F38120AAB7F0E120AAB7FB6
:040AA70001020AAB93
:1009E300E4F508EF601575F00A8474092508F8A684
:1009F300F00508EF75F00A84FF80E81508AF08EFEB
:100A03003395E0C364809480400F74092FF8E62483
:0A0A130030FF120ABD150880E4222E
:100A1D00D3EF9401EE940040177D64EDD3940274EE
:100A2D0080948040031D80F30DEF1F70E31E80E066
:100A3D007D61EDD394007480948040031D80F37D1F
:040A4D0004DDFE22A4
:100A7700000700080009002F000400050006002AEF
:100A8700000100020003002D00230000003D002BA1
:060AFD00011F00011E00B4
:10080000C293C292C291C290D297D296D295D294FC
:10081000A29582948296829740F67F1E7E00120AED
:100820001DC290D293D292D291A295829482968246
:10083000974005E4F51F8043C291D293D292D290A3
:10084000A2958294829682974005751F01802CC2E2
:1008500092D293D291D290A295829482968297401E
:1008600005751F028015C293D292D291D290A295A3
:100870008294829682974003751F03209405E4F5C5
:100880001E8016209505751E01800E209605751E8A
:10089000028006209703751E03A295829482968299
:1008A0009750F6E51F75F008A42477F582E4340A22
:0F08B000F58375F002E51E120AF1740193FF2221
:1008BF00E4F51DC3E51D9404748094805053120811
:1008CF00007419251DF8A6077419251DF8E6FF7E7B
:1008DF0000C3748094804014D3EF94097480948083
:1008EF00500A7419251DF8E6243080067419251D49
:1008FF00F8E6FF120ABD7419251DF8E6FF643D6086
:10090F0010EFB423087F01120AAB7F0022051D8070
:10091F00A2E51A24D6601514601C24FE602024FE64
:10092F007023E519851BF084F5198019E519851BCE
:10093F00F0A4F519800FE51B2519F5198007C3E5FC
:08094F0019951BF519AF1922DF
:100AE10000050E1C1F1C0D05000A0A0000110E0056
:100A51007F40120AABE4F520C3E520941074809422
:100A610080500EE520900AE193FF120ABD05208017
:060A7100E77F80020AABE2
:100ACF00120A97120A51E4FF120ABD7F01120ABDE2
:020ADF0080FE97
:030000000209579B
:0C095700787FE4F6D8FD75812002099E2F
:0C0AF100A42582F582E5F03583F5832210
:10096300020ACFE493A3F8E493A34003F68001F2D1
:1009730008DFF48029E493A3F85407240CC8C33395
:10098300C4540F4420C8834004F456800146F6DF64
:10099300E4800B0102040810204080900AFDE47EED
:1009A300019360BCA3FF543F30E509541FFEE49359
:1009B300A360010ECF54C025E060A840B8E493A320
:1009C300FAE493A3F8E493A3C8C582C8CAC583CA4B
:1009D300F0A3C8C582C8CAC583CADFE9DEE780BE03
:010B030000F1
:00000001FF
