:100D3600D3EF9401EE940040177D64EDD3940274D2
:100D460080948040031D80F30DEF1F70E31E80E04A
:100D56007D61EDD394007480948040031D80F37D03
:040D660004DDFE2288
:100CB800759850438920EF8EF0120B5D0CDC1C20D8
:100CC8000CE125800CE638400CEB70800CF0E1005C
:100CD80000000CF6758DFC8015758DFD8010758DE6
:100CE800FE800B758DFF8006758DFF438780D28E41
:010CF80022D9
:080DAB008F993099FDC29922D5
:080DB3003098FDC298AF9922AF
:100D9800120B05FF600C120DAB740129F9E43AFA45
:030DA80080EE22B8
:030DBB000119001B
:050DC100D2AFD2AC220C
:03002300020B8A43
:100B8A00C0E0C0F0C083C082C0D075D000C000C031
:100B9A0001C002C003C004C005C006C007309833B4
:100BAA00C29874352519F8A69974352519F8E6FFFF
:100BBA00120DAB051974342519F8E6B40D0976003F
:100BCA00751900D200800CE51964137006F519F541
:100BDA0048D200D007D006D005D004D003D002D026
:0E0BEA0001D000D0D0D082D083D0F0D0E03245
:100CF9008B0D8A0E890FAB10AA11A912120B05FFD1
:100D09006021AB0DAA0EA90F120B4B7401250FF52B
:100D19000FE4350EF50E74012512F512E43511F5BF
:0D0D29001180D3AB0DAA0EA90FEF020B4BEA
:100C5B008B0D8A0E890FAB10AA11A912120B05FF6F
:100C6B00AB0DAA0EA90F120B05B5072A7401250FA0
:100C7B00F50FE4350EF50E74012512F512E435115E
:100C8B00F511AA0EA90F120B05600BAB10AA11A937
:100C9B0012120B0570C0AB10AA11A912120B05FF93
:0D0CAB00AB0DAA0EA90F120B05C39FFF226F
:100D6A008B168A178918E4FFAB16AA17A9188F825F
:100D7A00758300120B1E600FB505097E00E92FF975
:0E0D8A00EE3AFA220F80E17B007A0079002217
:100A80008B0D8A0E890FE4FCAB0DAA0EA90F120B79
:100A900005606FAB10AA11A912120B05FDAB0DAAD0
:100AA0000EA90F120D6A8B138A148915AE02AF01BD
:100AB000EF4E7002FF2285130D85140E85150FABC6
:100AC00010AA11A912120B0560348C8275830012D2
:100AD0000B1EFFAB13AA14A915120B05B5071F7443
:100AE000012515F515E43514F5140CAB10AA11A960
:100AF000128C82758300120B1E70C47F0122E4FCED
:050B000080867F002249
:100BF8008B0D8A0E890F8B138A148915AB0DAA0EDB
:100C0800A90F120B05600D7401250FF50FE4350EC1
:100C1800F50E80E8AB10AA11A912120B05FF60228D
:100C28000512E5127002051114F9120B05FEAB0D41
:100C3800050FE50FAA0E7002050E14F9EE120B4B04
:100C480080D2AB0DAA0EA90FEF120B4BAB13AA144F
:030C5800A91522B9
:100930004D656E750D0A2D2D2D2D2D2D2D2D2D2D49
:100940002D2D2D2D2D2D2D2D2D2D2D2D2D2D0D0A1A
:10095000006129737472636D700D0A622973747279
:100960007374720D0A63297374726361740D0A647F
:1009700029737472636861720D0A00456E74657242
:1009800020737472696E6720313A2000456E746579
:100990007220737472696E6720323A200052657358
:1009A000756C74203A200053616D65004469666679
:1009B0000073756220737472696E6720666F756E5E
:1009C000640073756220737472696E67206E6F7451
:1009D00020666F756E64004368617220666F756E85
:1009E000640043686172206E6F7420666F756E6478
:0409F000000D0A00EC
:020DBE00C10072
:100800007F807E25120CB8120DC17BFF7A097930EA
:10081000120D987BFF7A097951120D983000FD3046
:100820000005C200853509AF097E00C3EF946174ED
:100830008094805003020924D3EF946474809480E0
:1008400040030209247BFF7A09797B120D9830005E
:10085000FD300014C2007510007511007512357B53
:10086000007A007921120CF97BFF7A09798C120D3C
:10087000983000FD200003020924C2007BFF7A09A2
:10088000799D120D98E509249E603214605614601B
:100890006D240360030209247510007511007512A0
:1008A000357B007A007921120C5B8F08EF7BFF709B
:1008B000067A0979A7806A7A0979AC806475100094
:1008C0007511007512357B007A007921120A808F2C
:1008D00008EF64017BFF70067A0979B180437A09D9
:1008E00079C2803D7510007511007512357B007A54
:1008F000007921120BF88B0A8A0B890C80237B006C
:100900007A007921AD35120D6A8B0A8A0B890C1297
:100910000B057BFFB535067A0979D780047A09790A
:10092000E2120D987BFF7A0979F1120D9802080AFC
:030000000209F4FE
:0C09F400787FE4F6D8FD758148020A3BCC
:100B0500BB010689828A83E0225002E722BBFE02EE
:090B1500E32289828A83E4932221
:100B1E00BB010CE58229F582E5833AF583E022508C
:100B2E0006E92582F8E622BBFE06E92582F8E222D6
:0D0B3E00E58229F582E5833AF583E49322F0
:100B4B00BB010689828A83F0225002F722BBFE0189
:020B5B00F32283
:100B5D00D083D082F8E4937012740193700DA3A327
:100B6D0093F8740193F5828883E473740293B5F05E
:0D0B7D00067403936860E9A3A3A3A380D8C6
:100A0000020800E493A3F8E493A34003F68001F204
:100A100008DFF48029E493A3F85407240CC8C333F7
:100A2000C4540F4420C8834004F456800146F6DFC6
:100A3000E4800B0102040810204080900DBBE47E8E
:100A4000019360BCA3FF543F30E509541FFEE493BB
:100A5000A360010ECF54C025E060A840B8E493A382
:100A6000FAE493A3F8E493A3C8C582C8CAC583CAAD
:100A7000F0A3C8C582C8CAC583CADFE9DEE780BE65
:010DC0000032
:00000001FF
