:100A1800D3EF9401EE940040177D64EDD3940274F3
:100A280080948040031D80F30DEF1F70E31E80E06B
:100A38007D61EDD394007480948040031D80F37D24
:040A480004DDFE22A9
:1009D700759850438920EF8EF01208E709FB1C2019
:1009E7000A0025800A0538400A0A70800A0FE100CC
:1009F70000000A15758DFC8015758DFD8010758DAD
:100A0700FE800B758DFF8006758DFF438780D28E24
:010A170022BC
:080A95008F993099FDC29922EE
:100A7600120800FF600C120A95740129F9E43AFA8B
:030A860080EE22DD
:100914008F0D8E0C8D0B8C0AE4F50EAF0DAE0CAD65
:100924000BAC0AEC4D4E4F6031E47B0AFAF9F81235
:100934000855EB2430FF740F250EF8A607AF0DAE53
:100944000CAD0BAC0AE47B0AFAF9F81208558F0DCA
:100954008E0C8D0B8C0A050E80C1150EAF0EEF3375
:1009640095E0C364809480400D740F2FF8E6FF1265
:070974000A95150E80E62232
:10097B00E4FDFCC2A3C2A0D2A2D2A0C2A0D2A2D23A
:10098B00A0C2A0C2A2D2A0C2A0C2A2D2A0C2A0C228
:10099B00A2D2A0C2A0D2A0C2A0D2A07B0BC3748053
:1009AB0094804021C2A030A1177E007401A80308D7
:1009BB008005C333CE33CED8F9FFEE4204EF4205A8
:0C09CB00D2A01B80D8D2A3AE04AF05223E
:030A9D000D0A003F
:100A4C007F807E251209D712097B8E088F097BFFC8
:100A5C007A0A799D120A76AE08AF09E4FCFD1209F8
:0A0A6C00147F647E00120A1880DD7A
:03000000020A8968
:0C0A8900787FE4F6D8FD758118020A4C55
:10080000BB010689828A83E0225002E722BBFE02F6
:09081000E32289828A83E4932229
:1008190075F008758200EF2FFFEE33FECD33CDCC96
:1008290033CCC58233C5829BED9AEC99E582984019
:100839000CF582EE9BFEED9AFDEC99FC0FD5F0D6F6
:10084900E4CEFBE4CDFAE4CCF9A88222B800C1B920
:100859000059BA002DEC8BF084CFCECDFCE5F0CB5E
:10086900F97818EF2FFFEE33FEED33FDEC33FCEB97
:1008790033FB10D703994004EB99FB0FD8E5E4F952
:10088900FA227818EF2FFFEE33FEED33FDEC33FC3F
:10089900C933C910D7059BE99A4007EC9BFCE99A33
:1008A900F90FD8E0E4C9FAE4CCFB2275F010EF2F78
:1008B900FFEE33FEED33FDCC33CCC833C810D70778
:1008C9009BEC9AE899400AED9BFDEC9AFCE899F8B3
:0E08D9000FD5F0DAE4CDFBE4CCFAE4C8F92246
:1008E700D083D082F8E4937012740193700DA3A3A0
:1008F70093F8740193F5828883E473740293B5F0D7
:0D090700067403936860E9A3A3A3A380D83E
:00000001FF
