:1009C8008F80C2A0C2A1D2A27F027E0012093BC2C0
:0209D800A22259
:1009DA008F80D2A0C2A1D2A27F027E0012093BC29E
:0209EA00A22247
:1009B4007F021209C87F381209C87F0E1209C87F46
:0409C400010209C85B
:1008BF008B088A09890AAB08AA09A90A12096F606D
:1008CF002DB40D107FC01209C87401250AF50AE472
:1008DF003509F509AB08AA09A90A12096FFF120910
:0F08EF00DA7401250AF50AE43509F50980C822F3
:10093B00D3EF9401EE940040177D64EDD3940274D1
:10094B0080948040031D80F30DEF1F70E31E80E049
:10095B007D61EDD394007480948040031D80F37D02
:04096B0004DDFE2287
:10099400000100020003002F000400050006002AE5
:1009A400000700080009002D00230000002A002B86
:10080000C293C292C291C290D297D296D295D294FC
:10081000A29582948296829750F67F1E7E001209DE
:100820003BC290D293D292D291A295829482968228
:10083000974005E4F50C8043C291D293D292D290B6
:10084000A2958294829682974005750C01802CC2F5
:1008500092D293D291D290A295829482968297401E
:1008600005750C028015C293D292D291D290A295B6
:100870008294829682974003750C03209405E4F5D8
:100880000B8016209505750B01800E209605750BC3
:10089000028006209703750B03A2958294829682AC
:1008A0009740F6E50C75F008A42494F582E4340929
:0F08B000F58375F002E50B120988740193FF229E
:1008FE001209B41208008F0D7E00D3EF9409748094
:10090E00948050047D0180027D00C3EE648094804B
:10091E0040047F0180027F00EF5D600AE50D243008
:0D092E00FF1209DA80CDAF0D1209DA80C684
:030000000209EC06
:0C09EC00787FE4F6D8FD75810D0208FE4E
:10096F00BB010689828A83E0225002E722BBFE0286
:09097F00E32289828A83E49322B9
:0C098800A42582F582E5F03583F583227A
:00000001FF
