:1008DD007F807E251208687B417D027FA01200007B
:1008ED007F0A7E001200007D027FA0120000120917
:0308FD001F80FE5B
:10086800759850438920EF8EF012083B088C1C20A5
:100878000891258008963840089B708008A0E10000
:10088800000008A6758DFC8015758DFD8010758D8E
:10089800FE800B758DFF8006758DFF438780D28E95
:0108A800222D
:08091F008F993099FDC2992265
:10090000120800FF600C12091F740129F9E43AFA79
:0309100080EE2254
:1008A9008B088A09890AE4FFEFC39D50183098FD27
:1008B900C298AB08AA09A90A8F82758300E5991223
:1008C90008190F80E3AB08AA09A90A8F827583006A
:0408D900E402081914
:05092700D2AFD2AC22AA
:05092C00C2AFC2AC22C5
:03000000020913DF
:0C091300787FE4F6D8FD75810A0208DD4B
:10080000BB010689828A83E0225002E722BBFE02F6
:09081000E32289828A83E4932229
:10081900F8BB010DE58229F582E5833AF583E8F015
:10082900225006E92582C8F622BBFE05E92582C8C1
:02083900F222A9
:10083B00D083D082F8E4937012740193700DA3A34C
:10084B0093F8740193F5828883E473740293B5F083
:0D085B00067403936860E9A3A3A3A380D8EB
:00000001FF
