:0415040002080000D9
:1013B4007531901214F6AF3112147E1214A07FAA64
:1013C40012147E1214A01214F6E5314401FF121413
:1013D4007E1214A01214108F321214A01214EDAF46
:0213E4003222B3
:10134C007531901214F6AF3112147E1214A07FACCA
:10135C0012147E1214A07F0212147E1214A0121406
:10136C00F6AF3112147E1214A07FEE12147E1214FA
:04137C00A00214EDCA
:1013E6008F358D368B371214F6AF3512147E1214E4
:1013F600A09202AF3612147E1214A09202AF3712D8
:0A140600147E1214A092020214EDED
:10130C008F368D371214F6AF3612147E1214A0924B
:10131C0002AF3712147E1214A092021214F6E536A4
:10132C004401FF12147E1214A092021214108F3872
:10133C001214FD1214ED7F0A7E00121380AF3822B6
:0714F600D2A3D2A4C2A4227C
:0914ED00C2A3C2A4D2A3D2A4221E
:10147E007E07EE3395E0C3648094804014C2A3A827
:10148E0006EF088002C313D8FC1392A4D2A31E80C9
:02149E00E12249
:10141000E4FF7E07EE3395E0C3648094804017D2EA
:10142000A330A40DA8067401088002C333D8FC427F
:0714300007C2A31E80DE22AB
:1014A000C2A3D2A4D2A30000000020A404C2A3C3FC
:0514B00022C2A3D322BB
:0714FD00C2A3D2A4D2A32276
:101284008D328B33E534FD7C00640270055307BF57
:101294008017430740ED4C7008EF7C0054DFFD805D
:1012A40006EF4420FD7C00AF05AB077D027FD01222
:1012B40013E6AB327D017FD01213E6AB33E4FD7F3E
:0412C400D00213E65B
:101022008B318A3289337D027FD012130C8F347D4B
:10103200017FD012130C8F35E4FD7FD012130CE523
:1010420034C41313540330E01AE534C4135407AB09
:1010520031AA32A93390000920E0047441800E7451
:1010620050800AAB31AA32A933900009E4120B9FD7
:101072005334BF5334DFE534C4540F2430AB31AAA8
:1010820032A933120B8DE534540F2430AB31AA321E
:10109200A933900001120B9F900002743A120B9F29
:1010A200E535C4540F2430900003120B9FE53554EC
:1010B2000F2430900004120B9F900005743A120B1B
:1010C2009FEFC4540F2430900006120B9FEF540F71
:1010D2002430900007120B9F9000087420120B9F7F
:0710E20090000AE4020B9FDD
:10138000D3EF9401EE940040177D64EDD394027482
:1013900080948040031D80F30DEF1F70E31E80E0FA
:1013A0007D61EDD394007480948040031D80F37DB3
:0413B00004DDFE2238
:1014C9008F80C2A0C2A1D2A27F027E00121380C265
:0214D900A2224D
:1014DB008F80D2A0C2A1D2A27F027E00121380C243
:0214EB00A2223B
:1014B5007F021214C97F381214C97F0E1214C97F16
:0414C500010214C943
:10145B008B318A328933AB31AA32A933120B47FF56
:10146B0060101214DB74012533F533E43532F53299
:03147B0080E422E8
:100F4C008F348E338D328C31E4F538F537F536F538
:100F5C0035EC3350187F2D1214DBAF34AE33AD3279
:100F6C00AC31120BF78F348E338D328C31AF34AEF3
:100F7C0033AD32AC31EC4D4E4F70057F301214DB7B
:100F8C00AF34AE33AD32AC31EC4D4E4F604EE47BF2
:100F9C000AFAF9F81212C8AC00AD01AE02AF03E5C3
:100FAC003825E025E02439F8120C11E4FAF9F8E5BB
:100FBC00382401F538EA3537F537E93536F536E8B2
:100FCC003535F535AF34AE33AD32AC31E47B0A1286
:100FDC0012C88F348E338D328C3180A4E53824FFC7
:100FEC00801DAC35EC33402DE53825E025E0243967
:100FFC00F8120C05EF2430FF1214DB74FF2538F5C2
:10100C0038E53734FFF537E53634FFF536E535345A
:06101C00FFF53580CD2236
:10122000E4FDFCC297C294D295D294C294D295D2D6
:1012300094C294D295D294C294A2009295D294C2B0
:1012400094A2019295D294C294D294C294D2947BE7
:101250000BEB3395E0C3648094804021C2943096B8
:10126000177E007401A803088005C333CE33CED89F
:10127000F9FFEE4204EF4205D2941B80D4D297AE20
:0412800004AF052290
:101437002053687265652047616E657368204E6149
:101447006D61680054454D503D00504F543D004C70
:0414570044523D00BE
:1010E9001214B57F0C1214C9E4F5347B407D587F86
:1010F9001112128412134C7FE87E031213807BFFB6
:101109007A14793712145B7B007A00792512102240
:101119007FC01214C97B007A00792512145B12135F
:10112900B4EF3395E08F24F523F522F5217FCB1217
:1011390014C97BFF7A14794B12145BAF24AE23AD2B
:1011490022AC21120F4CC200C201121220120D4012
:101159007F941214C97BFF7A14795112145B7B00B6
:101169007A00792512145BC200D201121220120DE5
:10117900407F9F1214C97BFF7A14795612145B7B46
:0B118900007A00792512145B0211109F
:100E4B008E3B8F3C8B3D8A3E893FE4F540F541F567
:100E5B0042F543E53C453B7014AF40EF3395E08FD3
:100E6B0082F5837430120B9F0540020F33C3E53BB1
:100E7B00648094805024C3E4953CF53CE4953BF5A9
:100E8B003BAB3DAA3EA93FAF400540EF3395E08F0A
:100E9B0082F583742D120B9F0541E53C453B603772
:100EAB00AE3BAF3C7C007D0A120BC1ED2430FFAB97
:100EBB003DAA3EA93FAE400540EEFD3395E08D8245
:100ECB00F583EF120B9FAE3BAF3C7C007D0A120B00
:100EDB00C18E3B8F3C80C3E54014F542C3E54264B1
:100EEB0080F8E541648098503FAB3DAA3EA93FAFE7
:100EFB0042EF3395E0FE8F82F583120B60F543AD25
:100F0B0041ED3395E08D82F583120B608F828E83DA
:100F1B00120B9FAF41EF3395E08F82F583E54312C0
:100F2B000B9F0541154280B4AB3DAA3EA93FAF4094
:100F3B00EF3395E08F82F583E4120B9FE54004FFBE
:010F4B002283
:100D4000E48F248E23F522F521AD22AC21120A88EE
:100D50007B017A0A79A0783A1208F87B007A007948
:010D6000256D
:100D61008F348E338D328C318B358A368937E4F569
:100D71003AFFFEFDFCAB34AA33A932A8311209FEB9
:100D81005024AF34AE33AD32AC31120A778F348E8A
:100D9100338D328C31AB35AA36A937853A827583CA
:100DA10000742D120B9FAF34AE33AD32AC31120A49
:100DB100C68F387E00AB35AA36A937120E4BAB353C
:100DC100AA36A937AF3A053A8F82758300120B60B4
:100DD10070EC153AAF3A053A8F82F583742E120BF7
:100DE1009FAC38E4120A92A804A905AA06AB07AF82
:100DF10034AE33AD32AC31120803E4FBFA79C87872
:100E0100421208F8120AC68F397E00AB35AD3A0599
:100E11003A7C00E5372DF9EC3536FA120E4BE539FF
:100E210075F00A84E5F0701DAB35AA36A937AF3AE3
:100E3100053A8F82F5837430120B9F853A82758350
:0A0E410000E4120B9FE53A04FF22C3
:10080000020B32E86480F8E933E83360110460F0E9
:10081000ED33EC337009E8FCE9FDEAFEEBFF22045E
:1008200060DED3EB9FEA9EE99DE8C2E78CF0C2F759
:1008300095F0400CE8CCF8E9CDF9EACEFAEBCFFB25
:10084000120AFD85D0F05804700320D5B3E8047077
:10085000075002B2D5020B3C92D5EC0460F7E4CC11
:10086000C0E0C398F8603B94186008400DD0E0FBEE
:10087000020B14E4FBFAC9FC8028E830E406E4C962
:10088000FBE4CAFCE830E305E4C9CACBFCE8540742
:100890006010F8C3E913F9EA13FAEB13FBEC13FC4D
:1008A000D8F130F52FC3E49CFCEF9BFFEE9AFEEDF0
:1008B00099FDD0E0FBEF4E4D4C701222DB03020B92
:1008C00039EC2CFCEF33FFEE33FEED33FDED30E77A
:1008D000EB020B14EF2BFFEE3AFEED39FDD0E0FBFF
:1008E00050130BBB0003020B3CED13FDEE13FEEFA8
:0808F00013FFEC13FC020B14D2
:1008F800EC4D6011E8497017ED33EC3304600DE4FA
:10090800FCFFFEFD22E933E8330470F8020B3212D3
:100918000AFD58046009E4CC2481500628500902D5
:100928000B3C284003020B39C0E0EB4A7044B98005
:1009380006D0E0FB020B28EF4E701CBD8008EBFFD1
:10094800EAFEE9FD80EBE98DF0A4FEE5F00209E19D
:10095800E9CDF9EAFEEBFFEF89F0A4FCE5F0CE89DA
:10096800F0A42EFFE435F0CD89F0A42DFEE435F097
:100978008067EF4E7005BD80D780C3EF8BF0A4ACC5
:10098800F0EE8BF0A42CFCE435F0F8EF8AF0A42C00
:10099800E5F038FCE433CB8DF0A42CFCE5F03BF813
:1009A800EE8AF0A42CFCE5F038F8E433CF89F0A403
:1009B8002CFCE5F038CF3400CE89F0A42FFFE5F009
:1009C8003EFEE433C98DF0A42EFEE5F039CD8AF061
:1009D800A42FFFE5F03EFEE43DFD33D0E0FB5007D9
:1009E8000BBB000F020B3CEC2CFCEF33FFEE33FE8D
:0609F800ED33FD020B14BB
:1009FE0074F8CC6480CCC86480C8F58204604FC3A0
:100A0E00EB9FF5F0EA9E42F0E99D42F0E89C45F03E
:100A1E00603C501DE5825FFFE582D313CB5BCBF4C8
:100A2E002B5582FB50280ABA002409B900200880F1
:100A3E001DE5825BFBE582D313CF5FCFF4C3132F8B
:100A4E005582FF50090EBE00050DBD00010CC3EB13
:100A5E009FF5F0EA9E42F0E99D42F0E89C45F06079
:090A6E0007CC4820E701B3EC229B
:100A7700ED33EC33600A047003BD8004ECB2E7FC8D
:010A8700224C
:100A880075F020800E75F010800575F0087D007EE9
:100A9800007F003392D530D503120BF7EC334010AA
:100AA800EF33FFEE33FEED33FDEC33FCD5F0ED22F2
:0E0AB800E5F0247EA2D513CC92E7CDCEFF222E
:100AC600EDD2E7CD33EC3392D524814006E4FFFE28
:100AD600FDFC22FCE4CFCECDCC24E0501174FF8087
:100AE600EDC3CC13CCCD13CDCE13CECF13CF047024
:070AF600F030D5DE020BF722
:100AFD00E9D2E7C933E833F892D5EDD2E7CD33EC3F
:070B0D0033FC5002B2D522B7
:100B1400EC30E7100FBF000C0EBE00080DBD000442
:100B24000BEB6014A2D5EB13FCED92E7FD2274FFEE
:100B3400FCFDFEFF22E480F8A2D574FF13FC7D8047
:030B4400E480EF5B
:0300000002119456
:0C119400787FE4F6D8FD7581780211DB4D
:100B4700BB010689828A83E0225002E722BBFE02AC
:090B5700E32289828A83E49322DF
:100B6000BB010CE58229F582E5833AF583E022504A
:100B700006E92582F8E622BBFE06E92582F8E22294
:0D0B8000E58229F582E5833AF583E49322AE
:100B8D00BB010689828A83F0225002F722BBFE0147
:020B9D00F32241
:100B9F00F8BB010DE58229F582E5833AF583E8F08C
:100BAF00225006E92582C8F622BBFE05E92582C838
:020BBF00F22220
:100BC100C2D5EC30E709B2D5E4C39DFDE49CFCEE4F
:100BD10030E715B2D5E4C39FFFE49EFE120C1DC39E
:100BE100E49DFDE49CFC8003120C1D30D507C3E499
:060BF1009FFFE49EFE22BE
:1012C800C2D5E830E70FB2D5E4C39BFBE49AFAE451
:1012D80099F9E498F8EC30E717B2D51212FE120C1F
:1012E800AEE4C39BFBE49AFAE499F9E498F8800326
:1012F800120CAE30D50DE4C39FFFE49EFEE49DFDC5
:04130800E49CFC2243
:0E0BF700C3E49FFFE49EFEE49DFDE49CFC220F
:0C0C0500E6FC08E6FD08E6FE08E6FF221B
:0C0C1100ECF608EDF608EEF608EFF6220F
:1011A0000210E9E493A3F8E493A34003F68001F26C
:1011B00008DFF48029E493A3F85407240CC8C33350
:1011C000C4540F4420C8834004F456800146F6DF1F
:1011D000E4800B0102040810204080901504E47E96
:1011E000019360BCA3FF543F30E509541FFEE49314
:1011F000A360010ECF54C025E060A840B8E493A3DB
:10120000FAE493A3F8E493A3C8C582C8CAC583CA05
:10121000F0A3C8C582C8CAC583CADFE9DEE780BEBD
:0115080000E2
:100C1D00BC000BBE0029EF8DF084FFADF022E4CCBB
:100C2D00F875F008EF2FFFEE33FEEC33FCEE9DEC84
:100C3D00984005FCEE9DFE0FD5F0E9E4CEFD22EDCA
:100C4D00F8F5F0EE8420D21CFEADF075F008EF2F14
:100C5D00FFED33FD4007985006D5F0F222C398FD05
:050C6D000FD5F0EA22A2
:100C720075F008758200EF2FFFEE33FECD33CDCC39
:100C820033CCC58233C5829BED9AEC99E5829840BC
:100C92000CF582EE9BFEED9AFDEC99FC0FD5F0D699
:100CA200E4CEFBE4CDFAE4CCF9A88222B800C1B9C3
:100CB2000059BA002DEC8BF084CFCECDFCE5F0CB01
:100CC200F97818EF2FFFEE33FEED33FDEC33FCEB3A
:100CD20033FB10D703994004EB99FB0FD8E5E4F9F5
:100CE200FA227818EF2FFFEE33FEED33FDEC33FCE2
:100CF200C933C910D7059BE99A4007EC9BFCE99AD6
:100D0200F90FD8E0E4C9FAE4CCFB2275F010EF2F1A
:100D1200FFEE33FEED33FDCC33CCC833C810D7071A
:100D22009BEC9AE899400AED9BFDEC9AFCE899F855
:0E0D32000FD5F0DAE4CDFBE4CCFAE4C8F922E8
:00000001FF
