:04127500024B000028
:10114700751490121267AF141211C71212267FAAD4
:101157001211C7121226121267E5144401FF121169
:0F116700C71212261211A08F1512124EAF1522A9
:1010DF00751490121267AF141211C71212267FAC3B
:1010EF001211C71212267F021211C71212261212E4
:1010FF0067AF141211C71212267FEE1211C7121208
:04110F002602124E54
:100F86008F148C158D168B178A188919E4F51A1289
:100F96001267AF141211C7121226E515FF1211C7F8
:100FA600121226AF16E5161211C7121226AB17AA91
:100FB60018A919120B69FF60151211C712122674AF
:100FC600012519F519E43518F518051A80DF1212EE
:0B0FD6004E7F0A7E00121113AF1A229A
:101066008F1C8C1D8D1E121267AF1C1211C7121217
:1010760026E51DFF1211C7121226AF1EE51E12111C
:10108600C7121226121267E51C4401FF1211C7127D
:1010960012261211A08F1F12126E12124EAF1F22AD
:101176008F188D198B1A121267AF181211C7121217
:10118600269202AF191211C71212269202AF1A1234
:0A11960011C7121226920202124E37
:1010A6008F198D1A121267AF191211C712122692D2
:1010B60002AF1A1211C71212269202121267E5190E
:1010C6004401FF1211C712122692021211A08F1BA1
:0910D60012126E12124EAF1B2221
:07126700D2A3D2A4C2A4220D
:09124E00C2A3C2A4D2A3D2A422BF
:1011C7007E07EE3395E0C3648094804014C2A3A8E1
:1011D70006EF088002C313D8FC1392A4D2A31E8083
:0211E700E12203
:1011A000E4FF7E07EE3395E0C3648094804017D25D
:1011B000A330A40DA8067401088002C333D8FC42F2
:0711C00007C2A31E80DE221E
:10122600C2A3D2A4D2A30000000020A404C2A3C378
:0512360022C2A3D32237
:07126E00C2A3D2A4D2A32207
:100FE1008D158B16E517FD7C00640270055307BF54
:100FF1008017430740ED4C7008EF7C0054DFFD8003
:1010010006EF4420FD7C00AF05AB077D027FD012C7
:101011001176AB157D017FD0121176AB16E4FD7F01
:04102100D002117672
:100C1E008B148A1589167D027FD01210A68F177D30
:100C2E00017FD01210A68F18E4FD7FD01210A6E51A
:100C3E0017C41313540330E01AE517C4135407AB4B
:100C4E0014AA15A91690000920E0047441800E74B0
:100C5E0050800AAB14AA15A916900009E4120BC114
:100C6E005317BF5317DFE517C4540F2430AB14AA24
:100C7E0015A916120BAFE517540F2430AB14AA1595
:100C8E00A916900001120BC1900002743A120BC10A
:100C9E00E518C4540F2430900003120BC1E518540C
:100CAE000F2430900004120BC1900005743A120B01
:100CBE00C1EFC4540F2430900006120BC1EF540F35
:100CCE002430900007120BC19000087420120BC143
:070CDE0090000AE4020BC1C3
:1011E9008D4D8B4EAB077D047FD0121176AB4D7DB3
:0F11F900057FD0121176AB4E7D067FD0021176A6
:10111300D3EF9401EE940040177D64EDD3940274F1
:1011230080948040031D80F30DEF1F70E31E80E069
:101133007D61EDD394007480948040031D80F37D22
:0411430004DDFE22A7
:10102500759850438920EF8EF0120BF110491C2062
:10103500104E25801053384010587080105DE10027
:1010450000001063758DFC8015758DFD8010758D04
:10105500FE800B758DFF8006758DFF438780D28ED0
:011065002268
:081257008F993099FDC2992224
:08125F003098FDC298AF9922FE
:10123B00120B69FF600C121257740129F9E43AFA88
:03124B0080EE2210
:100EC8008B488A49894AC298E4FEEEC39D50403057
:100ED80098FDC298AB48AA49A94A8E82758300E555
:100EE80099120BC18E82758300120B82FF12125762
:100EF800AB48AA49A94A8E82758300120B82B40DA9
:100F08000B8E82758300E4120BC180030E80BBAB8D
:100F180048AA49A94AAF068F82758300E4020BC12B
:100F2800AE07E4FDEE3395E0C36480948050097FFA
:100F38002D121257EEF404FEEEFB3395E04B7005CC
:100F48007F30121257EE601D75F00A120B47AFF092
:100F5800EF2430FF743E2DF8A607EE75F00A120B49
:100F680047FE0D80E01DED3395E0C364809480401A
:0E0F78000C743E2DF8E6FF1212571D80E92280
:100D71008F358E348D338C32E4FFFEFDFCAB35AA0A
:100D810034A933A8321209FE50187F2D121257AF21
:100D910035AE34AD33AC32120A778F358E348D33A4
:100DA1008C32AF35AE34AD33AC32120AC68F398EC8
:100DB100388D378C36EC120A88A804A905AA06AB2F
:100DC10007AF35AE34AD33AC32120803E4FBFA7928
:100DD100C878421208F8120AC68F3D8E3C8D3B8CB2
:100DE1003AAF39120F287F2E121257AF3D020F284A
:100E6400E4FDFCC297C294D295D294C294D295D296
:100E740094C294D295D294C294A2009295D294C270
:100E840094A2019295D294C294D294C294D2947BA7
:100E94000BEB3395E0C3648094804021C294309678
:100EA400177E007401A803088005C333CE33CED85F
:100EB400F9FFEE4204EF4205D2941B80D4D297AEE0
:040EC40004AF052250
:101208006C6F676964202074696D652020504F54A5
:0E12180020204C4452202054454D500D0A0019
:100DF100E4F508F50AF50B750F01750E0A750DA0DE
:100E0100750C3A75138175120C7511C875103C7FFC
:100E1100807E25121025E4F5177B407D237F031288
:100E21000FE11210DF7BFF7A12790812123B7B006F
:100E31007A007921120C1EC200C201120E648F2C9D
:100E4100C200D201120E648F2D1211478F2EE4F5CC
:100E51002FFB7A007921AD0BAC0A7FA0120F868F90
:030E61000880FE08
:10080000020B32E86480F8E933E83360110460F0E9
:10081000ED33EC337009E8FCE9FDEAFEEBFF22045E
:1008200060DED3EB9FEA9EE99DE8C2E78CF0C2F759
:1008300095F0400CE8CCF8E9CDF9EACEFAEBCFFB25
:10084000120AFD85D0F05804700320D5B3E8047077
:10085000075002B2D5020B3C92D5EC0460F7E4CC11
:10086000C0E0C398F8603B94186008400DD0E0FBEE
:10087000020B14E4FBFAC9FC8028E830E406E4C962
:10088000FBE4CAFCE830E305E4C9CACBFCE8540742
:100890006010F8C3E913F9EA13FAEB13FBEC13FC4D
:1008A000D8F130F52FC3E49CFCEF9BFFEE9AFEEDF0
:1008B00099FDD0E0FBEF4E4D4C701222DB03020B92
:1008C00039EC2CFCEF33FFEE33FEED33FDED30E77A
:1008D000EB020B14EF2BFFEE3AFEED39FDD0E0FBFF
:1008E00050130BBB0003020B3CED13FDEE13FEEFA8
:0808F00013FFEC13FC020B14D2
:1008F800EC4D6011E8497017ED33EC3304600DE4FA
:10090800FCFFFEFD22E933E8330470F8020B3212D3
:100918000AFD58046009E4CC2481500628500902D5
:100928000B3C284003020B39C0E0EB4A7044B98005
:1009380006D0E0FB020B28EF4E701CBD8008EBFFD1
:10094800EAFEE9FD80EBE98DF0A4FEE5F00209E19D
:10095800E9CDF9EAFEEBFFEF89F0A4FCE5F0CE89DA
:10096800F0A42EFFE435F0CD89F0A42DFEE435F097
:100978008067EF4E7005BD80D780C3EF8BF0A4ACC5
:10098800F0EE8BF0A42CFCE435F0F8EF8AF0A42C00
:10099800E5F038FCE433CB8DF0A42CFCE5F03BF813
:1009A800EE8AF0A42CFCE5F038F8E433CF89F0A403
:1009B8002CFCE5F038CF3400CE89F0A42FFFE5F009
:1009C8003EFEE433C98DF0A42EFEE5F039CD8AF061
:1009D800A42FFFE5F03EFEE43DFD33D0E0FB5007D9
:1009E8000BBB000F020B3CEC2CFCEF33FFEE33FE8D
:0609F800ED33FD020B14BB
:1009FE0074F8CC6480CCC86480C8F58204604FC3A0
:100A0E00EB9FF5F0EA9E42F0E99D42F0E89C45F03E
:100A1E00603C501DE5825FFFE582D313CB5BCBF4C8
:100A2E002B5582FB50280ABA002409B900200880F1
:100A3E001DE5825BFBE582D313CF5FCFF4C3132F8B
:100A4E005582FF50090EBE00050DBD00010CC3EB13
:100A5E009FF5F0EA9E42F0E99D42F0E89C45F06079
:090A6E0007CC4820E701B3EC229B
:100A7700ED33EC33600A047003BD8004ECB2E7FC8D
:010A8700224C
:100A880075F020800E75F010800575F0087D007EE9
:100A9800007F003392D530D503120BE3EC334010BE
:100AA800EF33FFEE33FEED33FDEC33FCD5F0ED22F2
:0E0AB800E5F0247EA2D513CC92E7CDCEFF222E
:100AC600EDD2E7CD33EC3392D524814006E4FFFE28
:100AD600FDFC22FCE4CFCECDCC24E0501174FF8087
:100AE600EDC3CC13CCCD13CDCE13CECF13CF047024
:070AF600F030D5DE020BE336
:100AFD00E9D2E7C933E833F892D5EDD2E7CD33EC3F
:070B0D0033FC5002B2D522B7
:100B1400EC30E7100FBF000C0EBE00080DBD000442
:100B24000BEB6014A2D5EB13FCED92E7FD2274FFEE
:100B3400FCFDFEFF22E480F8A2D574FF13FC7D8047
:030B4400E480EF5B
:03000000020CE50A
:0C0CE500787FE4F6D8FD75814E020D2CDE
:100B4700C2D530F707B2D563F0FF05F030E70CB236
:100B5700D5F4048463F0FF05F080018430D502F4F6
:020B6700042266
:100B6900BB010689828A83E0225002E722BBFE028A
:090B7900E32289828A83E49322BD
:100B8200BB010CE58229F582E5833AF583E0225028
:100B920006E92582F8E622BBFE06E92582F8E22272
:0D0BA200E58229F582E5833AF583E493228C
:100BAF00BB010689828A83F0225002F722BBFE0125
:020BBF00F3221F
:100BC100F8BB010DE58229F582E5833AF583E8F06A
:100BD100225006E92582C8F622BBFE05E92582C816
:020BE100F222FE
:0E0BE300C3E49FFFE49EFEE49DFDE49CFC2223
:100BF100D083D082F8E4937012740193700DA3A393
:100C010093F8740193F5828883E473740293B5F0C9
:0D0C1100067403936860E9A3A3A3A380D831
:100CF100020DF1E493A3F8E493A34003F68001F21B
:100D010008DFF48029E493A3F85407240CC8C33303
:100D1100C4540F4420C8834004F456800146F6DFD2
:100D2100E4800B0102040810204080901275E47EDB
:100D3100019360BCA3FF543F30E509541FFEE493C7
:100D4100A360010ECF54C025E060A840B8E493A38E
:100D5100FAE493A3F8E493A3C8C582C8CAC583CAB9
:100D6100F0A3C8C582C8CAC583CADFE9DEE780BE71
:011279000074
:00000001FF
